{
  "_format": "hh3-artifact-1",
  "contractName": "ZKCreditScore",
  "sourceName": "contracts/ZKCreditScore.sol",
  "abi": [
    {
      "inputs": [
        {
          "internalType": "address",
          "name": "_verifier",
          "type": "address"
        }
      ],
      "stateMutability": "nonpayable",
      "type": "constructor"
    },
    {
      "inputs": [],
      "name": "AlreadyExists",
      "type": "error"
    },
    {
      "inputs": [],
      "name": "AttestationNotFound",
      "type": "error"
    },
    {
      "inputs": [],
      "name": "InvalidProof",
      "type": "error"
    },
    {
      "inputs": [],
      "name": "OnlyOwner",
      "type": "error"
    },
    {
      "anonymous": false,
      "inputs": [
        {
          "indexed": true,
          "internalType": "bytes32",
          "name": "commitment",
          "type": "bytes32"
        }
      ],
      "name": "AttestationRevoked",
      "type": "event"
    },
    {
      "anonymous": false,
      "inputs": [
        {
          "indexed": true,
          "internalType": "bytes32",
          "name": "commitment",
          "type": "bytes32"
        },
        {
          "indexed": false,
          "internalType": "uint8",
          "name": "tier",
          "type": "uint8"
        },
        {
          "indexed": false,
          "internalType": "uint256",
          "name": "maxLoanUSD",
          "type": "uint256"
        },
        {
          "indexed": false,
          "internalType": "uint256",
          "name": "timestamp",
          "type": "uint256"
        }
      ],
      "name": "CreditScored",
      "type": "event"
    },
    {
      "anonymous": false,
      "inputs": [
        {
          "indexed": true,
          "internalType": "address",
          "name": "newVerifier",
          "type": "address"
        }
      ],
      "name": "VerifierUpdated",
      "type": "event"
    },
    {
      "inputs": [
        {
          "internalType": "bytes32",
          "name": "",
          "type": "bytes32"
        }
      ],
      "name": "attestations",
      "outputs": [
        {
          "internalType": "bytes32",
          "name": "commitment",
          "type": "bytes32"
        },
        {
          "internalType": "uint8",
          "name": "tier",
          "type": "uint8"
        },
        {
          "internalType": "uint256",
          "name": "maxLoanUSD",
          "type": "uint256"
        },
        {
          "internalType": "uint256",
          "name": "suggestedAPR",
          "type": "uint256"
        },
        {
          "internalType": "uint256",
          "name": "timestamp",
          "type": "uint256"
        },
        {
          "internalType": "bool",
          "name": "valid",
          "type": "bool"
        }
      ],
      "stateMutability": "view",
      "type": "function"
    },
    {
      "inputs": [
        {
          "internalType": "address",
          "name": "user",
          "type": "address"
        }
      ],
      "name": "getUserAttestations",
      "outputs": [
        {
          "internalType": "bytes32[]",
          "name": "",
          "type": "bytes32[]"
        }
      ],
      "stateMutability": "view",
      "type": "function"
    },
    {
      "inputs": [
        {
          "internalType": "bytes32",
          "name": "commitment",
          "type": "bytes32"
        },
        {
          "internalType": "uint8",
          "name": "minTier",
          "type": "uint8"
        }
      ],
      "name": "isEligible",
      "outputs": [
        {
          "internalType": "bool",
          "name": "eligible",
          "type": "bool"
        }
      ],
      "stateMutability": "view",
      "type": "function"
    },
    {
      "inputs": [],
      "name": "owner",
      "outputs": [
        {
          "internalType": "address",
          "name": "",
          "type": "address"
        }
      ],
      "stateMutability": "view",
      "type": "function"
    },
    {
      "inputs": [
        {
          "internalType": "bytes32",
          "name": "commitment",
          "type": "bytes32"
        }
      ],
      "name": "revoke",
      "outputs": [],
      "stateMutability": "nonpayable",
      "type": "function"
    },
    {
      "inputs": [
        {
          "internalType": "address",
          "name": "_verifier",
          "type": "address"
        }
      ],
      "name": "setVerifier",
      "outputs": [],
      "stateMutability": "nonpayable",
      "type": "function"
    },
    {
      "inputs": [
        {
          "internalType": "bytes32",
          "name": "commitment",
          "type": "bytes32"
        },
        {
          "internalType": "uint8",
          "name": "tier",
          "type": "uint8"
        },
        {
          "internalType": "uint256",
          "name": "maxLoanUSD",
          "type": "uint256"
        },
        {
          "internalType": "uint256",
          "name": "suggestedAPR",
          "type": "uint256"
        },
        {
          "internalType": "bytes",
          "name": "proof",
          "type": "bytes"
        }
      ],
      "name": "submitScore",
      "outputs": [],
      "stateMutability": "nonpayable",
      "type": "function"
    },
    {
      "inputs": [],
      "name": "totalScored",
      "outputs": [
        {
          "internalType": "uint256",
          "name": "",
          "type": "uint256"
        }
      ],
      "stateMutability": "view",
      "type": "function"
    },
    {
      "inputs": [
        {
          "internalType": "address",
          "name": "",
          "type": "address"
        },
        {
          "internalType": "uint256",
          "name": "",
          "type": "uint256"
        }
      ],
      "name": "userAttestations",
      "outputs": [
        {
          "internalType": "bytes32",
          "name": "",
          "type": "bytes32"
        }
      ],
      "stateMutability": "view",
      "type": "function"
    },
    {
      "inputs": [],
      "name": "verifier",
      "outputs": [
        {
          "internalType": "address",
          "name": "",
          "type": "address"
        }
      ],
      "stateMutability": "view",
      "type": "function"
    },
    {
      "inputs": [
        {
          "internalType": "bytes32",
          "name": "commitment",
          "type": "bytes32"
        }
      ],
      "name": "verify",
      "outputs": [
        {
          "internalType": "uint8",
          "name": "tier",
          "type": "uint8"
        },
        {
          "internalType": "uint256",
          "name": "maxLoanUSD",
          "type": "uint256"
        },
        {
          "internalType": "uint256",
          "name": "suggestedAPR",
          "type": "uint256"
        },
        {
          "internalType": "uint256",
          "name": "timestamp",
          "type": "uint256"
        }
      ],
      "stateMutability": "view",
      "type": "function"
    }
  ],
  "bytecode": "0x608060405234801561000f575f80fd5b50604051620010013803806200100183398181016040528101906100339190610117565b3360035f6101000a81548173ffffffffffffffffffffffffffffffffffffffff021916908373ffffffffffffffffffffffffffffffffffffffff1602179055508060025f6101000a81548173ffffffffffffffffffffffffffffffffffffffff021916908373ffffffffffffffffffffffffffffffffffffffff16021790555050610142565b5f80fd5b5f73ffffffffffffffffffffffffffffffffffffffff82169050919050565b5f6100e6826100bd565b9050919050565b6100f6816100dc565b8114610100575f80fd5b50565b5f81519050610111816100ed565b92915050565b5f6020828403121561012c5761012b6100b9565b5b5f61013984828501610103565b91505092915050565b610eb180620001505f395ff3fe608060405234801561000f575f80fd5b50600436106100a7575f3560e01c806375e366161161006f57806375e36616146101615780638da5cb5b14610194578063940992a3146101b25780639658e1ef146101e7578063b75c7dc614610217578063c8409a9614610233576100a7565b80630d3194f2146100ab5780631cf2bbc9146100db5780632b7ac3f31461010b5780635437988d1461012957806358b3881014610145575b5f80fd5b6100c560048036038101906100c09190610949565b610251565b6040516100d291906109a1565b60405180910390f35b6100f560048036038101906100f09190610a47565b6102f1565b6040516101029190610a94565b60405180910390f35b61011361031c565b6040516101209190610abc565b60405180910390f35b610143600480360381019061013e9190610ad5565b610341565b005b61015f600480360381019061015a9190610b61565b61044d565b005b61017b60048036038101906101769190610bf7565b610647565b60405161018b9493929190610c40565b60405180910390f35b61019c610725565b6040516101a99190610abc565b60405180910390f35b6101cc60048036038101906101c79190610bf7565b61074a565b6040516101de96959493929190610c83565b60405180910390f35b61020160048036038101906101fc9190610ad5565b610799565b60405161020e9190610d99565b60405180910390f35b610231600480360381019061022c9190610bf7565b61082c565b005b61023b6108d2565b6040516102489190610db9565b60405180910390f35b5f805f808581526020019081526020015f206040518060c00160405290815f8201548152602001600182015f9054906101000a900460ff1660ff1660ff168152602001600282015481526020016003820154815260200160048201548152602001600582015f9054906101000a900460ff16151515158152505090508060a0015180156102e857508260ff16816020015160ff1610155b91505092915050565b6001602052815f5260405f20818154811061030a575f80fd5b905f5260205f20015f91509150505481565b60025f9054906101000a900473ffffffffffffffffffffffffffffffffffffffff1681565b60035f9054906101000a900473ffffffffffffffffffffffffffffffffffffffff1673ffffffffffffffffffffffffffffffffffffffff163373ffffffffffffffffffffffffffffffffffffffff16146103c7576040517f5fc483c500000000000000000000000000000000000000000000000000000000815260040160405180910390fd5b8060025f6101000a81548173ffffffffffffffffffffffffffffffffffffffff021916908373ffffffffffffffffffffffffffffffffffffffff1602179055508073ffffffffffffffffffffffffffffffffffffffff167fd24015cc99cc1700cafca3042840a1d8ac1e3964fd2e0e37ea29c654056ee32760405160405180910390a250565b5f808781526020019081526020015f206005015f9054906101000a900460ff16156104a4576040517f23369fa600000000000000000000000000000000000000000000000000000000815260040160405180910390fd5b5f82829050036104e0576040517f09bde33900000000000000000000000000000000000000000000000000000000815260040160405180910390fd5b6040518060c001604052808781526020018660ff168152602001858152602001848152602001428152602001600115158152505f808881526020019081526020015f205f820151815f01556020820151816001015f6101000a81548160ff021916908360ff16021790555060408201518160020155606082015181600301556080820151816004015560a0820151816005015f6101000a81548160ff02191690831515021790555090505060015f3373ffffffffffffffffffffffffffffffffffffffff1673ffffffffffffffffffffffffffffffffffffffff1681526020019081526020015f2086908060018154018082558091505060019003905f5260205f20015f909190919091505560045f8154809291906105fe90610dff565b9190505550857f78dc9a404c9c9749a99bd81b14c54364dd6235287a5d8b32cadd4ff1191a4a5286864260405161063793929190610e46565b60405180910390a2505050505050565b5f805f805f805f8781526020019081526020015f206040518060c00160405290815f8201548152602001600182015f9054906101000a900460ff1660ff1660ff168152602001600282015481526020016003820154815260200160048201548152602001600582015f9054906101000a900460ff16151515158152505090508060a00151610701576040517f120a2e7700000000000000000000000000000000000000000000000000000000815260040160405180910390fd5b80602001518160400151826060015183608001519450945094509450509193509193565b60035f9054906101000a900473ffffffffffffffffffffffffffffffffffffffff1681565b5f602052805f5260405f205f91509050805f015490806001015f9054906101000a900460ff1690806002015490806003015490806004015490806005015f9054906101000a900460ff16905086565b606060015f8373ffffffffffffffffffffffffffffffffffffffff1673ffffffffffffffffffffffffffffffffffffffff1681526020019081526020015f2080548060200260200160405190810160405280929190818152602001828054801561082057602002820191905f5260205f20905b81548152602001906001019080831161080c575b50505050509050919050565b5f805f8381526020019081526020015f209050806005015f9054906101000a900460ff16610886576040517f120a2e7700000000000000000000000000000000000000000000000000000000815260040160405180910390fd5b5f816005015f6101000a81548160ff021916908315150217905550817f04bed256ad23fe17d61d9248ee108825bf3b1d04527fee36f0ee2af633fc145260405160405180910390a25050565b60045481565b5f80fd5b5f80fd5b5f819050919050565b6108f2816108e0565b81146108fc575f80fd5b50565b5f8135905061090d816108e9565b92915050565b5f60ff82169050919050565b61092881610913565b8114610932575f80fd5b50565b5f813590506109438161091f565b92915050565b5f806040838503121561095f5761095e6108d8565b5b5f61096c858286016108ff565b925050602061097d85828601610935565b9150509250929050565b5f8115159050919050565b61099b81610987565b82525050565b5f6020820190506109b45f830184610992565b92915050565b5f73ffffffffffffffffffffffffffffffffffffffff82169050919050565b5f6109e3826109ba565b9050919050565b6109f3816109d9565b81146109fd575f80fd5b50565b5f81359050610a0e816109ea565b92915050565b5f819050919050565b610a2681610a14565b8114610a30575f80fd5b50565b5f81359050610a4181610a1d565b92915050565b5f8060408385031215610a5d57610a5c6108d8565b5b5f610a6a85828601610a00565b9250506020610a7b85828601610a33565b9150509250929050565b610a8e816108e0565b82525050565b5f602082019050610aa75f830184610a85565b92915050565b610ab6816109d9565b82525050565b5f602082019050610acf5f830184610aad565b92915050565b5f60208284031215610aea57610ae96108d8565b5b5f610af784828501610a00565b91505092915050565b5f80fd5b5f80fd5b5f80fd5b5f8083601f840112610b2157610b20610b00565b5b8235905067ffffffffffffffff811115610b3e57610b3d610b04565b5b602083019150836001820283011115610b5a57610b59610b08565b5b9250929050565b5f805f805f8060a08789031215610b7b57610b7a6108d8565b5b5f610b8889828a016108ff565b9650506020610b9989828a01610935565b9550506040610baa89828a01610a33565b9450506060610bbb89828a01610a33565b935050608087013567ffffffffffffffff811115610bdc57610bdb6108dc565b5b610be889828a01610b0c565b92509250509295509295509295565b5f60208284031215610c0c57610c0b6108d8565b5b5f610c19848285016108ff565b91505092915050565b610c2b81610913565b82525050565b610c3a81610a14565b82525050565b5f608082019050610c535f830187610c22565b610c606020830186610c31565b610c6d6040830185610c31565b610c7a6060830184610c31565b95945050505050565b5f60c082019050610c965f830189610a85565b610ca36020830188610c22565b610cb06040830187610c31565b610cbd6060830186610c31565b610cca6080830185610c31565b610cd760a0830184610992565b979650505050505050565b5f81519050919050565b5f82825260208201905092915050565b5f819050602082019050919050565b610d14816108e0565b82525050565b5f610d258383610d0b565b60208301905092915050565b5f602082019050919050565b5f610d4782610ce2565b610d518185610cec565b9350610d5c83610cfc565b805f5b83811015610d8c578151610d738882610d1a565b9750610d7e83610d31565b925050600181019050610d5f565b5085935050505092915050565b5f6020820190508181035f830152610db18184610d3d565b905092915050565b5f602082019050610dcc5f830184610c31565b92915050565b7f4e487b71000000000000000000000000000000000000000000000000000000005f52601160045260245ffd5b5f610e0982610a14565b91507fffffffffffffffffffffffffffffffffffffffffffffffffffffffffffffffff8203610e3b57610e3a610dd2565b5b600182019050919050565b5f606082019050610e595f830186610c22565b610e666020830185610c31565b610e736040830184610c31565b94935050505056fea2646970667358221220e49fd0e90863c9e701a6b57f10bf0e99f20717efdd42cd501806f88bf0190eac64736f6c63430008140033",
  "linkReferences": {},
  "deployedLinkReferences": {},
  "immutableReferences": {},
  "inputSourceName": "project/contracts/ZKCreditScore.sol",
  "buildInfoId": "solc-0_8_20-fd6cae47b29417e82af271dd11aca847b04535d7"
}