{"project/contracts/Groth16Verifier.sol":{"Groth16Verifier":{"abi":[{"inputs":[{"internalType":"uint256[2]","name":"_pA","type":"uint256[2]"},{"internalType":"uint256[2][2]","name":"_pB","type":"uint256[2][2]"},{"internalType":"uint256[2]","name":"_pC","type":"uint256[2]"},{"internalType":"uint256[3]","name":"_pubSignals","type":"uint256[3]"}],"name":"verifyProof","outputs":[{"internalType":"bool","name":"","type":"bool"}],"stateMutability":"view","type":"function"}],"evm":{"bytecode":{"linkReferences":{},"object":"608060405234801561000f575f80fd5b5061069d8061001d5f395ff3fe608060405234801561000f575f80fd5b5060043610610029575f3560e01c806311479fea1461002d575b5f80fd5b610047600480360381019061004291906105ce565b61005d565b604051610054919061064e565b60405180910390f35b5f61051d565b7f30644e72e131a029b85045b68181585d2833e84879b9709143e1f593f00000018110610092575f805260205ff35b50565b5f60405183815284602082015285604082015260408160608360076107d05a03fa9150816100c5575f805260205ff35b825160408201526020830151606082015260408360808360066107d05a03fa9150816100f3575f805260205ff35b505050505050565b5f608086015f87017f1424bf4c60534a3db9a8695ee1d1f4c533c3c4d7f21a807ae5a22706d663673381527f1cd1c1b9820887b73a6043943e11818315835d2b6926cd3382e53f33314aa63e602082015261019b5f8801357f1d05c5c2c666f980c27dceb2bb0947575490ccd567ccb613948a79c0dcfd15757f22984ff4cca731c31c56f7a25677f69bbb4bc84a185d59d273525cb9f07de94484610095565b6101eb60208801357f0d1f959ed1597d7c44f1aa5da17c8441723bab8233ced5f9cc4ae078d236ca0d7f1d8cf322465a6d459c357740c4a2e101b21c9e6ac2a12b40de9a99a6f116cc7c84610095565b61023b60408801357f1313572b825cc47afbb45f1f18018441352ff709a665582bd330f09440524b867f2eee171312cddd53e1a208b3f1e0a1c4c0a92ac567fb2adc43419c54f2f388da84610095565b833582527f30644e72e131a029b85045b68181585d97816a916871ca8d3c208c16d87cfd4760208501357f30644e72e131a029b85045b68181585d97816a916871ca8d3c208c16d87cfd4703066020830152843560408301526020850135606083015260408501356080830152606085013560a08301527f25d71038f05d0f81b52d90e2ca907f7bfd32bd66311164455c42d1f6c035f43d60c08301527f1e4aa715ca4ed8927e0d2382a37f652744dffbba40b613a3a8ea944ecff8b32460e08301527f0a9d4f01a0156c82c88704ad72b49cc73917dae8cc4117f2f2fbaea1a99b67776101008301527f0eecc19afc6b63acac53ee84bc6ea141e6b402b65f07a05ba2eaa0df6fcbe9b86101208301527f28fed87151e9f1011e9300377c15904d537380944af8119d8328d2ba9da8d02f6101408301527f05f702e0e86f3de4fb2f0a4fc803d0f6bf6fb90c0c8ddd5befb71eb9bf67fadb6101608301525f88015161018083015260205f018801516101a08301527f198e9393920d483a7260bfb731fb5d25f1aa493335a9e71297e485b7aef312c26101c08301527f1800deef121f1e76426a00665e5c4479674322d4f75edadd46debd5cd992f6ed6101e08301527f090689d0585ff075ec9e99ad690c3395bc4b313370b38ef355acdadcd122975b6102008301527f12c85ea5db8c6deb4aab71808dcb408fe3d1e7690c43d37b4ce6cc0166fa7daa610220830152853561024083015260208601356102608301527f1ca394b6b71c9e3ad61d9b0912260f1f54a903f2191ddf11339a45caeea294a16102808301527f2e920fe99af12de74982919ad8a5704eac373c66d54357888de78a0c2268bbd56102a08301527f0b377e5a750fb59e2648cbb274b85be96104a33d15f1d166d96a78c93a80a2686102c08301527f2c85964f50da69db6c53327f91757ebacc066c8ca10ad3811b98603a4c3b265d6102e08301526020826103008460086107d05a03fa82518116935050505095945050505050565b60405161038081016040526105345f840135610063565b6105416020840135610063565b61054e6040840135610063565b61055b818486888a6100fb565b805f5260205ff35b5f80fd5b5f80fd5b5f8190508260206002028201111561058657610585610567565b5b92915050565b5f819050826040600202820111156105a7576105a6610567565b5b92915050565b5f819050826020600302820111156105c8576105c7610567565b5b92915050565b5f805f8061016085870312156105e7576105e6610563565b5b5f6105f48782880161056b565b94505060406106058782880161058c565b93505060c06106168782880161056b565b925050610100610628878288016105ad565b91505092959194509250565b5f8115159050919050565b61064881610634565b82525050565b5f6020820190506106615f83018461063f565b9291505056fea2646970667358221220928463c391ab2a052313166b096ec153f62c5be62ea07c30a097eaa28611295364736f6c63430008140033","opcodes":"PUSH1 0x80 PUSH1 0x40 MSTORE CALLVALUE DUP1 ISZERO PUSH2 0xF JUMPI PUSH0 DUP1 REVERT JUMPDEST POP PUSH2 0x69D DUP1 PUSH2 0x1D PUSH0 CODECOPY PUSH0 RETURN INVALID PUSH1 0x80 PUSH1 0x40 MSTORE CALLVALUE DUP1 ISZERO PUSH2 0xF JUMPI PUSH0 DUP1 REVERT JUMPDEST POP PUSH1 0x4 CALLDATASIZE LT PUSH2 0x29 JUMPI PUSH0 CALLDATALOAD PUSH1 0xE0 SHR DUP1 PUSH4 0x11479FEA EQ PUSH2 0x2D JUMPI JUMPDEST PUSH0 DUP1 REVERT JUMPDEST PUSH2 0x47 PUSH1 0x4 DUP1 CALLDATASIZE SUB DUP2 ADD SWAP1 PUSH2 0x42 SWAP2 SWAP1 PUSH2 0x5CE JUMP JUMPDEST PUSH2 0x5D JUMP JUMPDEST PUSH1 0x40 MLOAD PUSH2 0x54 SWAP2 SWAP1 PUSH2 0x64E JUMP JUMPDEST PUSH1 0x40 MLOAD DUP1 SWAP2 SUB SWAP1 RETURN JUMPDEST PUSH0 PUSH2 0x51D JUMP JUMPDEST PUSH32 0x30644E72E131A029B85045B68181585D2833E84879B9709143E1F593F0000001 DUP2 LT PUSH2 0x92 JUMPI PUSH0 DUP1 MSTORE PUSH1 0x20 PUSH0 RETURN JUMPDEST POP JUMP JUMPDEST PUSH0 PUSH1 0x40 MLOAD DUP4 DUP2 MSTORE DUP5 PUSH1 0x20 DUP3 ADD MSTORE DUP6 PUSH1 0x40 DUP3 ADD MSTORE PUSH1 0x40 DUP2 PUSH1 0x60 DUP4 PUSH1 0x7 PUSH2 0x7D0 GAS SUB STATICCALL SWAP2 POP DUP2 PUSH2 0xC5 JUMPI PUSH0 DUP1 MSTORE PUSH1 0x20 PUSH0 RETURN JUMPDEST DUP3 MLOAD PUSH1 0x40 DUP3 ADD MSTORE PUSH1 0x20 DUP4 ADD MLOAD PUSH1 0x60 DUP3 ADD MSTORE PUSH1 0x40 DUP4 PUSH1 0x80 DUP4 PUSH1 0x6 PUSH2 0x7D0 GAS SUB STATICCALL SWAP2 POP DUP2 PUSH2 0xF3 JUMPI PUSH0 DUP1 MSTORE PUSH1 0x20 PUSH0 RETURN JUMPDEST POP POP POP POP POP POP JUMP JUMPDEST PUSH0 PUSH1 0x80 DUP7 ADD PUSH0 DUP8 ADD PUSH32 0x1424BF4C60534A3DB9A8695EE1D1F4C533C3C4D7F21A807AE5A22706D6636733 DUP2 MSTORE PUSH32 0x1CD1C1B9820887B73A6043943E11818315835D2B6926CD3382E53F33314AA63E PUSH1 0x20 DUP3 ADD MSTORE PUSH2 0x19B PUSH0 DUP9 ADD CALLDATALOAD PUSH32 0x1D05C5C2C666F980C27DCEB2BB0947575490CCD567CCB613948A79C0DCFD1575 PUSH32 0x22984FF4CCA731C31C56F7A25677F69BBB4BC84A185D59D273525CB9F07DE944 DUP5 PUSH2 0x95 JUMP JUMPDEST PUSH2 0x1EB PUSH1 0x20 DUP9 ADD CALLDATALOAD PUSH32 0xD1F959ED1597D7C44F1AA5DA17C8441723BAB8233CED5F9CC4AE078D236CA0D PUSH32 0x1D8CF322465A6D459C357740C4A2E101B21C9E6AC2A12B40DE9A99A6F116CC7C DUP5 PUSH2 0x95 JUMP JUMPDEST PUSH2 0x23B PUSH1 0x40 DUP9 ADD CALLDATALOAD PUSH32 0x1313572B825CC47AFBB45F1F18018441352FF709A665582BD330F09440524B86 PUSH32 0x2EEE171312CDDD53E1A208B3F1E0A1C4C0A92AC567FB2ADC43419C54F2F388DA DUP5 PUSH2 0x95 JUMP JUMPDEST DUP4 CALLDATALOAD DUP3 MSTORE PUSH32 0x30644E72E131A029B85045B68181585D97816A916871CA8D3C208C16D87CFD47 PUSH1 0x20 DUP6 ADD CALLDATALOAD PUSH32 0x30644E72E131A029B85045B68181585D97816A916871CA8D3C208C16D87CFD47 SUB MOD PUSH1 0x20 DUP4 ADD MSTORE DUP5 CALLDATALOAD PUSH1 0x40 DUP4 ADD MSTORE PUSH1 0x20 DUP6 ADD CALLDATALOAD PUSH1 0x60 DUP4 ADD MSTORE PUSH1 0x40 DUP6 ADD CALLDATALOAD PUSH1 0x80 DUP4 ADD MSTORE PUSH1 0x60 DUP6 ADD CALLDATALOAD PUSH1 0xA0 DUP4 ADD MSTORE PUSH32 0x25D71038F05D0F81B52D90E2CA907F7BFD32BD66311164455C42D1F6C035F43D PUSH1 0xC0 DUP4 ADD MSTORE PUSH32 0x1E4AA715CA4ED8927E0D2382A37F652744DFFBBA40B613A3A8EA944ECFF8B324 PUSH1 0xE0 DUP4 ADD MSTORE PUSH32 0xA9D4F01A0156C82C88704AD72B49CC73917DAE8CC4117F2F2FBAEA1A99B6777 PUSH2 0x100 DUP4 ADD MSTORE PUSH32 0xEECC19AFC6B63ACAC53EE84BC6EA141E6B402B65F07A05BA2EAA0DF6FCBE9B8 PUSH2 0x120 DUP4 ADD MSTORE PUSH32 0x28FED87151E9F1011E9300377C15904D537380944AF8119D8328D2BA9DA8D02F PUSH2 0x140 DUP4 ADD MSTORE PUSH32 0x5F702E0E86F3DE4FB2F0A4FC803D0F6BF6FB90C0C8DDD5BEFB71EB9BF67FADB PUSH2 0x160 DUP4 ADD MSTORE PUSH0 DUP9 ADD MLOAD PUSH2 0x180 DUP4 ADD MSTORE PUSH1 0x20 PUSH0 ADD DUP9 ADD MLOAD PUSH2 0x1A0 DUP4 ADD MSTORE PUSH32 0x198E9393920D483A7260BFB731FB5D25F1AA493335A9E71297E485B7AEF312C2 PUSH2 0x1C0 DUP4 ADD MSTORE PUSH32 0x1800DEEF121F1E76426A00665E5C4479674322D4F75EDADD46DEBD5CD992F6ED PUSH2 0x1E0 DUP4 ADD MSTORE PUSH32 0x90689D0585FF075EC9E99AD690C3395BC4B313370B38EF355ACDADCD122975B PUSH2 0x200 DUP4 ADD MSTORE PUSH32 0x12C85EA5DB8C6DEB4AAB71808DCB408FE3D1E7690C43D37B4CE6CC0166FA7DAA PUSH2 0x220 DUP4 ADD MSTORE DUP6 CALLDATALOAD PUSH2 0x240 DUP4 ADD MSTORE PUSH1 0x20 DUP7 ADD CALLDATALOAD PUSH2 0x260 DUP4 ADD MSTORE PUSH32 0x1CA394B6B71C9E3AD61D9B0912260F1F54A903F2191DDF11339A45CAEEA294A1 PUSH2 0x280 DUP4 ADD MSTORE PUSH32 0x2E920FE99AF12DE74982919AD8A5704EAC373C66D54357888DE78A0C2268BBD5 PUSH2 0x2A0 DUP4 ADD MSTORE PUSH32 0xB377E5A750FB59E2648CBB274B85BE96104A33D15F1D166D96A78C93A80A268 PUSH2 0x2C0 DUP4 ADD MSTORE PUSH32 0x2C85964F50DA69DB6C53327F91757EBACC066C8CA10AD3811B98603A4C3B265D PUSH2 0x2E0 DUP4 ADD MSTORE PUSH1 0x20 DUP3 PUSH2 0x300 DUP5 PUSH1 0x8 PUSH2 0x7D0 GAS SUB STATICCALL DUP3 MLOAD DUP2 AND SWAP4 POP POP POP POP SWAP6 SWAP5 POP POP POP POP POP JUMP JUMPDEST PUSH1 0x40 MLOAD PUSH2 0x380 DUP2 ADD PUSH1 0x40 MSTORE PUSH2 0x534 PUSH0 DUP5 ADD CALLDATALOAD PUSH2 0x63 JUMP JUMPDEST PUSH2 0x541 PUSH1 0x20 DUP5 ADD CALLDATALOAD PUSH2 0x63 JUMP JUMPDEST PUSH2 0x54E PUSH1 0x40 DUP5 ADD CALLDATALOAD PUSH2 0x63 JUMP JUMPDEST PUSH2 0x55B DUP2 DUP5 DUP7 DUP9 DUP11 PUSH2 0xFB JUMP JUMPDEST DUP1 PUSH0 MSTORE PUSH1 0x20 PUSH0 RETURN JUMPDEST PUSH0 DUP1 REVERT JUMPDEST PUSH0 DUP1 REVERT JUMPDEST PUSH0 DUP2 SWAP1 POP DUP3 PUSH1 0x20 PUSH1 0x2 MUL DUP3 ADD GT ISZERO PUSH2 0x586 JUMPI PUSH2 0x585 PUSH2 0x567 JUMP JUMPDEST JUMPDEST SWAP3 SWAP2 POP POP JUMP JUMPDEST PUSH0 DUP2 SWAP1 POP DUP3 PUSH1 0x40 PUSH1 0x2 MUL DUP3 ADD GT ISZERO PUSH2 0x5A7 JUMPI PUSH2 0x5A6 PUSH2 0x567 JUMP JUMPDEST JUMPDEST SWAP3 SWAP2 POP POP JUMP JUMPDEST PUSH0 DUP2 SWAP1 POP DUP3 PUSH1 0x20 PUSH1 0x3 MUL DUP3 ADD GT ISZERO PUSH2 0x5C8 JUMPI PUSH2 0x5C7 PUSH2 0x567 JUMP JUMPDEST JUMPDEST SWAP3 SWAP2 POP POP JUMP JUMPDEST PUSH0 DUP1 PUSH0 DUP1 PUSH2 0x160 DUP6 DUP8 SUB SLT ISZERO PUSH2 0x5E7 JUMPI PUSH2 0x5E6 PUSH2 0x563 JUMP JUMPDEST JUMPDEST PUSH0 PUSH2 0x5F4 DUP8 DUP3 DUP9 ADD PUSH2 0x56B JUMP JUMPDEST SWAP5 POP POP PUSH1 0x40 PUSH2 0x605 DUP8 DUP3 DUP9 ADD PUSH2 0x58C JUMP JUMPDEST SWAP4 POP POP PUSH1 0xC0 PUSH2 0x616 DUP8 DUP3 DUP9 ADD PUSH2 0x56B JUMP JUMPDEST SWAP3 POP POP PUSH2 0x100 PUSH2 0x628 DUP8 DUP3 DUP9 ADD PUSH2 0x5AD JUMP JUMPDEST SWAP2 POP POP SWAP3 SWAP6 SWAP2 SWAP5 POP SWAP3 POP JUMP JUMPDEST PUSH0 DUP2 ISZERO ISZERO SWAP1 POP SWAP2 SWAP1 POP JUMP JUMPDEST PUSH2 0x648 DUP2 PUSH2 0x634 JUMP JUMPDEST DUP3 MSTORE POP POP JUMP JUMPDEST PUSH0 PUSH1 0x20 DUP3 ADD SWAP1 POP PUSH2 0x661 PUSH0 DUP4 ADD DUP5 PUSH2 0x63F JUMP JUMPDEST SWAP3 SWAP2 POP POP JUMP INVALID LOG2 PUSH5 0x6970667358 0x22 SLT KECCAK256 SWAP3 DUP5 PUSH4 0xC391AB2A SDIV 0x23 SGT AND PUSH12 0x96EC153F62C5BE62EA07C30 LOG0 SWAP8 0xEA LOG2 DUP7 GT 0x29 MSTORE8 PUSH5 0x736F6C6343 STOP ADDMOD EQ STOP CALLER "},"methodIdentifiers":{"verifyProof(uint256[2],uint256[2][2],uint256[2],uint256[3])":"11479fea"}}}}}